:100000003DC097C156C055C054C053C052C051C026
:1000100050C04FC04EC04DC04CC04BC04AC009027A
:100020001200010100801909040000000000000016
:1000300012011001FF000008C016DC0500010102DA
:10004000000116035500530042006500780061006E
:100050006D0070006C006500200363006F00640099
:10006000650061006E0064006C0069006600650058
:100070002E0063006F006D000403090411241FBEED
:10008000CFE5D1E0DEBFCDBF10E0A0E6B0E0E2E416
:10009000F7E002C005900D92A237B107D9F720E032
:1000A000A2E7B0E001C01D92A03AB207E1F72CD35D
:1000B00046C3A6CFCF93DF9360918600635067FD60
:1000C000A4C080918300CCE0D0E0C81BD109C65702
:1000D000DF4F809182008D3209F086C0683009F0D0
:1000E00092C083EC809376008AE580936100109241
:1000F00073008881807631F0CE016CD28F3F09F495
:1001000062C068C08A8110927F009981911106C0F7
:10011000109280002FE730E082E050C0953019F453
:10012000809387003DC09630A9F59B81913019F4EA
:1001300080E390E004C0923041F48EE190E090932F
:1001400085008093840082E121C09330F1F4811115
:1001500008C088E790E0909385008093840084E055
:1001600015C0813041F488E590E09093850080933C
:10017000840080E20BC0823041F482E490E09093EE
:1001800085008093840086E101C080E090E4909334
:10019000730020C0983079F0993031F48093890051
:1001A0002FE730E080E00AC081E09A3009F080E07B
:1001B0002FE730E003C029E830E081E0309385008C
:1001C0002093840007C0988197FD8E8190E89093DA
:1001D000730007C09F81911104C09E81981708F495
:1001E000892F809360000FC08091730087FF0BC040
:1001F000CE0126D28F3F21F48EE18093610003C0AF
:10020000811110926000109286008091610084FF3D
:1002100045C0809160008F3F09F440C0C82F8930ED
:1002200008F0C8E08C1B809360009091760088E80D
:10023000892780937600CC2329F1809184009091C6
:1002400085002091730026FF0AC0A7E7B0E0FC01FB
:100250002C2F34913D9331962150D9F708C0DC0101
:10026000E7E7F0E02C2F3D9131932150E1F72FEF9C
:100270002C0F30E02F5F3F4F820F931F909385002C
:10028000809384006C2F87E790E03CD0CC5FCC302B
:1002900019F08FEF80936000C093610084E196B302
:1002A000967031F48150D9F7109287001092810036
:1002B000C1E08111C0E090917200C91721F0811155
:1002C000DAD1C0937200DF91CF91089585B7826033
:1002D00085BF8BB780648BBF0895A82FB92F80E0AE
:1002E00090E041E050EA609530E009C02D9182270E
:1002F0009795879510F084279527305EC8F36F5F38
:10030000A8F30895EADF8D939D930895A6E08827CA
:100310009927AA9569F00197E1F3B199FCCFB19BB8
:10032000FECF81E09927A6B3019611F0A670D9F708
:100330000895CF93CFB7CF93C395B19BE9F7B19B06
:100340000BC0B19B09C0B19B07C0B19B05C0B19B5D
:1003500003C0B19B01C0D3C00F92DF93C091830053
:10036000DD27C657DF4F012EB19B03C0DF910F90F1
:10037000E6CF2F930F931F934F932FEF4F6F06B33B
:1003800001FB20F95F933F9350E03BE065C016B35B
:100390000126502951FDC89556B3012701FB25F9C7
:1003A0002F7306B3B1F05027102711FB26F906B2C0
:1003B0002230F0F000C016B3012701FB27F9012617
:1003C000502906B22430E8F54F77206816B30000B4
:1003D000F6CF50274F7D206206B2102F000000C0DC
:1003E00006B300265029102711FB26F906B2E2CFEA
:1003F0004F7B06B3206400C0DACF01265029167067
:1004000006B269F14E7F2160012F16B328C0002685
:1004100050294D7F06B22260102F29C00126502995
:100420004B7F06B22460012F2DC016B30126502940
:10043000477F2860000006B22EC04F7E06B32061C1
:1004400030C0422706B3499300265029102706B230
:100450004FEF11FB20F9297F16B379F2167059F18D
:100460000126502906B2012701FB21F9237F06B39B
:1004700071F2002650293150D0F006B2102711FB3E
:1004800022F9277E16B351F201265029012701FBDC
:1004900006B223F92F7C49F2000006B3102711FBA6
:1004A00024F90026502906B22F7939F270CF10E4D2
:1004B0001ABF002717C03B503195C31BD04010E432
:1004C0001ABF0881033CF9F00B34E9F02091810058
:1004D0001981110F1213EDCF093651F10D3211F0C0
:1004E000013E39F7009388003F915F914F911F9132
:1004F0000F912F91DF910F90CAB7C6FD1DCFCF91FD
:10050000CFBFCF91189520918800222369F31091D5
:100510008600112321F5343022F130938600209398
:100520008200109183003BE0311B3093830019C09F
:100530000091860001309CF40AE53091610034FDA1
:1005400011C000936100C6E7D0E010C0052710E09D
:1005500000C021C0052710E0C89508BB14C03AE5CB
:1005600001C032ED032EC0E0D0E032E017B31660D8
:10057000C19A08B317BB56E020E84FEF20FF0527CC
:1005800008BB279517951C3F28F700004552B0F788
:1005900020FF0527279508BB17951C3FB8F6299122
:1005A0003A9561F7097F10918700110F08BBC2507F
:1005B000D04011F01093810010E41ABF026017B30D
:1005C000197F402F497F54E05A95F1F708BB17BBBC
:1005D00048BB8ACFFC018181823071F030F48823DE
:1005E00049F0813049F5C39A27C0833069F08430DF
:1005F000C1F022C0C398089582E690E090938500F0
:100600008093840080E108958281809369008381D2
:1006100080936A00848180936B00858180936C0055
:100620000BC086818093740010927500813130F088
:1006300080E18093740002C080E008958FEF0895F8
:100640003091740020917500620F231738F02093C9
:10065000750081E0231771F080E008952617B9F343
:10066000FC014191CF01E22FF0E0EE59FF4F4083B2
:100670002F5FEBCF0895AF92BF92CF92DF92EF92B0
:10068000FF920F931F93CF93DF93D0E00FE017E219
:100690002CECC22E26EFD22ED11102C0C0E001C038
:1006A000C0E887E0A82EB12C90E4F92E80E090E01D
:1006B0008433994014F4CF0D01C0CF19C1BF26DE99
:1006C000853329E0920724F09C012453394003C06C
:1006D0009601281B390B2017310714F4EC2E8901E1
:1006E000F69421E0A21AB10819F7DF5FD230A1F623
:1006F000E1BEDF91CF911F910F91FF90EF90DF90BE
:10070000CF90BF90AF90089588E087BB9EE088E1CE
:100710000FB6F894A89581BD0FBE91BDD7DDB99AEB
:100720008AEFA895E9E3F0E23197F1F700C0000005
:100730008150B9F7B9987894A895BCDCFDCFF894AE
:02074000FFCFE9
:10074200FF5A48656C6C6F2C205553422100000003
:020752000000A5
:00000001FF
